:020000040800F2
:10000000E006002045010008E90D00080F0D00087A
:10001000CD0D00082B07000875190008000000002E
:10002000000000000000000000000000ED140008C7
:10003000DD0B000800000000710E0008011600082A
:100040005F0100085F0100085F0100085F01000810
:100050005F0100085F0100085F0100085F01000800
:100060005F0100085F0100085F0100085F010008F0
:100070005F0100085F0100085F0100085F010008E0
:100080005F0100085F0100085F0100085F010008D0
:100090005F0100085F0100085F0100085F010008C0
:1000A0005F0100085F0100085F0100085F010008B0
:1000B0005F0100085F0100085F0100085F010008A0
:1000C0005F0100085F0100085F0100085F01000890
:1000D0005F010008991600085F0100085F01000831
:1000E0005F0100085F0100085F0100085F01000870
:1000F0005F0100085F0100085F0100085F01000860
:100100005F0100085F0100085F0100085F0100084F
:100110005F0100085F0100085F0100085F0100083F
:100120005F0100085F0100085F0100085F0100082F
:10013000DFF80CD000F042FA00480047C523000861
:10014000E00600200648804706480047FEE7FEE735
:10015000FEE7FEE7FEE7FEE7FEE7FEE7FEE7FEE777
:10016000391600083101000840EA01039B0703D05B
:1001700009E008C9121F08C0042AFAD203E011F8E6
:10018000013B00F8013B521EF9D27047D2B201E0A8
:1001900000F8012B491EFBD270470022F6E710B58C
:1001A00013460A4604461946FFF7F0FF204610BDE5
:1001B000421C10F8011B0029FBD1801A704730B592
:1001C0000B46014600202022012409E021FA02F515
:1001D0009D4205D303FA02F5491B04FA02F52844AF
:1001E000151EA2F10102F1DC30BD2DE9F05F0546DC
:1001F000002092469B4688460646814640241BE0E6
:10020000284641464746224600F0F9F953465A46E9
:10021000C01A914110D311461846224600F0E0F969
:100220002D1A67EB01084F4622460120002100F0FD
:10023000D7F917EB00094E41201EA4F10104DFDCC1
:10024000484631462A464346BDE8F09F2DE9FE4F19
:10025000804681EA0300C00F0C46009021F0004167
:1002600023F00045B8EB0200A94105D240462146E3
:1002700090461C460B46024623F00040104347D0F0
:10028000270DC7F30A00C3F30A510290401A0190E8
:1002900040286BDAC3F3130040F4801B00989246A9
:1002A00020B10023D2EB030A63EB0B0B01985946F4
:1002B000C0F14002504600F093F906460D46504604
:1002C0005946019A00F0ABF910EB08006141002497
:1002D00087EA115284EAE7731A4340D0009A62B366
:1002E000019A012A4FEA075215DC001B61EB02015B
:1002F0004FF0004202EA0752CDE90042001C41F5EE
:10030000801132462B4600F0ABF903B0BDE8F08F08
:1003100040462146F9E7001B61EB0201001C41F554
:10032000801300185B412018A2F5001747EB03016A
:1003300040EAD570B6196D4111E06D084FEA3606F6
:1003400045EAC0754FEA0752001B61EB0201001C31
:1003500041F5801149084FEA3000001951413246F9
:100360002B4603B0BDE8F04F00F06BB900980122B6
:1003700040000023D0EB020263EBE07300982146BB
:100380004FEAE074B8EB000061EB0401E9E783F0A9
:1003900000435BE781F0004158E72DE9FE4F81EA19
:1003A000030404F0004421F0004100944FF0000BDE
:1003B00023F0004350EA01045ED052EA03045BD00C
:1003C000C3F30A54C1F30A552C44A4F2F334019444
:1003D000A0FB0254C1F3130141F48011C3F31303D2
:1003E00043F4801301FB024400FB034E840A970A86
:1003F00044EA815447EA8357A4FB076802958D0AB3
:1004000005FB07854FEA932C04FB0C542705029D3E
:100410004FEA065847EA1637B5EB08056EEB070CAE
:10042000870E920E47EA811742EA8312A7FB020168
:10043000B6EB0B0164EB00042B0D43EA0C335E18A2
:1004400044EB1C50DA465146E7FB0201C5F31304A6
:100450004FEA0B3343EA14534FEA0432019C43EA58
:100460000603A4F10C040294009CCDE900B400F052
:10047000F7F803B0BDE8F08F00200146F9E72DE959
:10048000F04D81EA030404F0004B21F000451446CE
:100490004FF0000A23F0004150EA050220D054EA50
:1004A00001021DD0C5F30A570246C5F31303C1F379
:1004B0001300C1F30A5640F4801543F48013A7EBF0
:1004C0000608101BD64608F2FD3873EB050002D370
:1004D00008F1010801E092185B41B8F1000F03DA5E
:1004E00000200146BDE8F08D00204FF48011064643
:1004F00084460EE0171B73EB050705D3121B63EB55
:10050000050306434CEA010C49084FEA30009218F3
:100510005B4150EA0107EDD152EA030012D082EAB2
:10052000040083EA0501084305D0101BAB4106D245
:100530000122002306E000224FF0004302E06FF0AA
:10054000010253101AEB06004CEB085110EB0A00A5
:1005500041EB0B01BDE8F04D00F073B8C1F30A5256
:10056000C1F3130140F2FF3341F480119A4202DAE1
:1005700000200146704740F233439A42A2F23342D0
:1005800002DC524200F03BB800F02AB830B5041E3D
:1005900071F1000404DB4FF00044404264EB0101C0
:1005A000141E73F1000405DB1C464FF00043524259
:1005B00063EB0403994208BF904230BD064C074DDF
:1005C00006E0E06840F0010394E807009847103423
:1005D000AC42F6D3FFF7B0FD98260008B826000815
:1005E000202A04DB203A00FA02F1002070479140F3
:1005F000C2F1200320FA03F3194390407047202AE8
:1006000004DB203A21FA02F00021704721FA02F3BC
:10061000D040C2F120029140084319467047202A79
:1006200006DBCB17203A41FA02F043EAE07306E01A
:1006300041FA02F3D040C2F120029140084319462A
:10064000704710B5141E73F1000408DA401C41F124
:10065000000192185B411A4301D120F0010010BD46
:100660002DE9F04D92469B4611B1B1FA81F202E0BC
:10067000B0FA80F220329046FFF7B2FF04460F46F0
:1006800040EA0A0041EA0B0153465A46084313D098
:10069000114653EA010019D0C8F140025046FFF755
:1006A000AEFF05460E46504659464246FFF798FFB4
:1006B000084305D0012004E020463946BDE8F08D0E
:1006C0000020054346EAE0762C4337430A98630549
:1006D000E40AA0EB08000022FD0A44EA47540A306D
:1006E00002D500200146E9E7010510196941DDE95D
:1006F000084500196941BDE8F04DA2E770B505460F
:100700000C4600262046FFF753FD064607E02878F2
:100710002178884201D0FF2070BD6D1C641C300020
:10072000A6F10106F3D100BFF6E700BFFEE7000027
:100730002DE9F043C1B004464FF4807101A8FFF7E2
:100740002CFD0027B84600250026207877281BD1ED
:1007500001A952A000F022F901A801F0FFFE07460E
:10076000394653A001F008F901A957A000F016F985
:1007700005462A4601A95AA001F0FEF82A46394644
:1007800001A800F047FC85E0207872283BD101A940
:1007900042A000F003F901A801F0E0FE0746394647
:1007A00043A001F0E9F801A952A000F0F7F800F029
:1007B000FF090025002009E001A9095C303905EB9B
:1007C000850201EB42018DB2411CC8B24845F3DB02
:1007D00029464FA001F0D0F84FF48072002101A803
:1007E000FFF7D4FC2A46394601A800F0EBFB0026AF
:1007F00006E001A8815D4DA001F0BEF8701C86B234
:10080000AE42F6DB46E02078692807D100F054FDBF
:100810008046414646A001F0AFF83BE020786628CC
:1008200008D147A001F0A8F800F086FC48A001F02C
:10083000A3F82FE0207873280FD101A917A000F0AA
:10084000ADF801A801F08AFE0746384600F07AFDAF
:10085000394643A001F090F81CE0207862280FD1BF
:1008600001A90EA000F09AF801A801F077FE074652
:10087000384600F085FB394640A001F07DF809E0DC
:100880002078682803D1434801F076F802E0424816
:1008900001F072F841B0BDE8F0830000C7EBCAE494
:1008A000C8EB3234CEBBB5D8D6B73A0D0A0000003B
:1008B000C4E3CAE4C8EBB5C4B5D8D6B7CAC7307864
:1008C00025780D0A00000000C7EBCAE4C8EBD2AAE5
:1008D000D0B4C8EBB5C4CAFDBEDD3A0D0A000000B5
:1008E000646174653A3A25732C6C656E3A3A2564F6
:1008F0000D0A0000C7EBCAE4C8EBD2AAB6C1C8A172
:10090000B5C4CAFDBEDDB5C4B3A4B6C80D0A0000A7
:10091000C4E3CAE4C8EBB5C4B6C1B3F6B5C4B3A466
:10092000B6C8CAC725640D0A00000000257820005B
:10093000666C617368B5C44944CAC725640D0A0072
:10094000C7EBB5C8B4FD2D2D2D2D2D2D2D0D0A0075
:10095000B8F1CABDBBAFCDEAB3C9A3A10D0A00006F
:10096000D2D1BEADB2C1B3FDB5D8D6B7CEAA25643B
:10097000B5C4C9C8C7F80D0A00000000D2D1BEAD89
:10098000B2C1B3FDB5D8D6B7CEAA2564B5C4BFE908
:100990000D0A0000742500083C26000870B50446C6
:1009A0000D460026214608A000F0E6FF00BF0748DC
:1009B00000780028FBD0002004490870284600F089
:1009C000F3F80646304670BD25730000380000205D
:1009D00030B5E7B04AA103C9CDE925014AA1D1E963
:1009E00000028968CDE9232122904AA103C9CDE9FB
:1009F00020014AA207CA1DAB07C34BA103C9CDE919
:100A00001B014BA103C9CDE919014BA103C9CDE9D4
:100A100017014BA00068169024224AA10DA8FFF7E9
:100A2000A3FB51A103C9CDE90B0151A103C9CDE934
:100A3000090125A8019022A8029020A803901DA8D2
:100A400004901BA8059019A8069017A8079016A84F
:100A5000089027A800F0A8F8054600240DE009A892
:100A6000005DA84207DC01A850F8241027A8FFF772
:100A700045FE00B903E0601CC4B2082CEFD300BFF0
:100A8000082C27D2DFE804F004080C11161A2125DF
:100A90000020394908602BE001203749086027E031
:100AA00000203549091D086022E001203249091D56
:100AB00008601DE0002027A9485519E09DF829107D
:100AC00027AA8818FFF734FE12E0002027A948550E
:100AD0000EE00DE02A4627A928A000F04DFF2AA02D
:100AE00000F04AFF294627A801F0E8FB67B030BDB7
:100AF00000BF0BA92AA000F03FFF00BFF6E70000EF
:100B00004C454431206F6E004C454431206F666681
:100B1000000000004C454432206F6E004C454432CA
:100B2000206F66660000000072657475726E0000CA
:100B3000666C617368202D007072696E74662000A7
:100B40000D0000005468657265206973206E6F2087
:100B5000636F72726573706F6E64696E6720636F26
:100B60006D6D616E640D0A00202D2D3E0D0A000092
:100B70000708070806070701B401244225732C2C37
:100B80002C25640D0A0000000D0A3D3D3D3D3D3D14
:100B90003D3D3D3D3D3D3D3D3D3D0D0A00000000DC
:100BA00025730D0A0000000070B5044609480A4983
:100BB00002682046FFF7D8FA0648008885B2054843
:100BC000002102680448FFF7E1FA002001490860AB
:100BD000284670BD3C0000205800002070472DE9D9
:100BE000F0410246002500260020002300240027B3
:100BF00091F803C00CF00F0591F803C00CF0100C35
:100C0000BCF1000F03D091F802C04CEA050591F841
:100C100000C0BCF1000F31D0146800202BE04FF071
:100C2000010C0CFA00F3B1F800C00CEA03069E4276
:100C300020D183004FF00F0C0CFA03F7BC4305FAE8
:100C400003FC4CEA040491F803C0BCF1280F06D160
:100C50004FF0010C0CFA00FCC2F814C00AE091F845
:100C600003C0BCF1480F05D14FF0010C0CFA00FC99
:100C7000C2F810C0401C0828D1D31460B1F800C0DD
:100C8000BCF1FF0F34DD546800202EE000F1080CA9
:100C90004FF0010808FA0CF3B1F800C00CEA0306A3
:100CA0009E4221D183004FF00F0C0CFA03F7BC4396
:100CB00005FA03FC4CEA040491F803C0BCF1280FC8
:100CC00005D100F1080C08FA0CF8C2F8148091F86C
:100CD00003C0BCF1480F07D100F1080C4FF0010828
:100CE00008FA0CF8C2F81080401C0828CED35460D3
:100CF000BDE8F0810246002093680B400BB1012053
:100D000000E000207047416170470161704700BFFB
:100D1000FEE7000008B50121082000F0ABF8102024
:100D2000ADF8000048208DF8030069460648FFF73B
:100D300056FF0820ADF8000048208DF803006946F2
:100D40000148FFF74CFF08BD000C014010B5102111
:100D50000F48FFF7CFFFC8B9052001F077FA10213F
:100D60000B48FFF7C7FF88B90FE010210848FFF7CD
:100D7000C1FF012809D1052001F068FA10210448BB
:100D8000FFF7B8FF012800D110BDEEE70020FBE718
:100D9000000C014008B50121080200F06BF84FF487
:100DA0006040ADF8000010208DF8030003208DF89E
:100DB000020069460448FFF712FF4FF46041024801
:100DC000FFF7A3FF08BD00000020014000BFFEE7C1
:100DD00010B50448007820B1002002490870FFF7E0
:100DE000F7FD10BD380000207047000070B50021ED
:100DF00000230F22C47804B3154C246804F4E06483
:100E0000C4F5E064210AC1F10403CA40447804FA3D
:100E100003F184781440214309010E4C0678A15552
:100E2000047804F01F050124AC4005786D11AD0075
:100E300005F1E025C5F8004109E0047804F01F053C
:100E40000124AC40044D0678761145F8264070BD6B
:100E50000CED00E000E400E080E100E00249014325
:100E6000024A1160704700000000FA050CED00E036
:100E70007047000029B1064A92690243044B9A6107
:100E800004E0034A92698243014B9A617047000073
:100E90000010024030B500210022002400232D4D17
:100EA0006D6805F00C0121B1042905D0082923D172
:100EB00005E0294D056022E0274D05601FE0254D26
:100EC0006D6805F47012234D6D6805F480340225B9
:100ED00005EB92421CB9214D554305600BE01D4DB9
:100EE0006D6805F400351DB11C4D5543056002E0E9
:100EF000194D5543056002E0174D056000BF00BF66
:100F0000144D6D6805F0F0010909154D6B5C05681D
:100F1000DD4045600F4D6D6805F4E061090A104D34
:100F20006B5C4568DD4085600A4D6D6805F4605175
:100F3000C90A0B4D6B5C4568DD40C560054D6D68A9
:100F400005F44041890B074D6B5CC568B5FBF3F5B3
:100F5000056130BD0010024000127A0000093D001A
:100F6000240000203400002021B1028842F0400219
:100F7000028004E002884FF6BF731A400280704777
:100F800010B5044600F056FA00F03AFA10210C4869
:100F9000FFF7B9FE202000F0F7F9C4F3074000F096
:100FA000F3F9C4F3072000F0EFF9E0B200F0ECF938
:100FB00010210348FFF7A9FE00F022FA10BD00003F
:100FC0000008014070B505460C4616461021104831
:100FD000FFF799FE032000F0D7F9C4F3074000F0B3
:100FE000D3F9C4F3072000F0CFF9E0B200F0CCF958
:100FF00004E0FF2000F0C8F928706D1C3000A6F155
:1010000001018EB2F5D110210148FFF77EFE70BDBF
:10101000000801402DE9F05F07460E4614464FF0E8
:101020000008C146C2460025AB4606F0FF0ACAF1D9
:101030000000C5B22046E11704EB1161C1F3072897
:10104000E11704EB11610912A4EB012101F0FF0982
:10105000BAF1000F20D1B8F1000F05D12246314678
:10106000384600F0DBF864E009E04FF48072314666
:10107000384600F0D3F806F5807607F580775FEA0A
:101080000800A8F1010101F0FF08EED14A463146FF
:10109000384600F0C3F84CE0B8F1000F18D1A9456C
:1010A00010DDA9EB050000F0FF0B2A46314638465B
:1010B00000F0B4F82E442F445A463146384600F02A
:1010C000ADF836E022463146384600F0A7F830E069
:1010D000601B84B22046E11704EB1161C1F30728BD
:1010E000E11704EB11610912A4EB012101F0FF09E2
:1010F0002A463146384600F091F82E442F4409E044
:101100004FF480723146384600F088F806F5807654
:1011100007F580775FEA0800A8F1010101F0FF08F8
:10112000EED1B9F1000F04D04A463146384600F0FE
:1011300075F8BDE8F09F000010B500F07BF91021B4
:101140000648FFF7E0FDC72000F01EF91021034814
:10115000FFF7DBFD00F054F910BD0000000801406E
:1011600000B587B001210803FFF784FE0121C420E8
:10117000FFF780FE1020ADF8040003208DF8060074
:1011800010208DF8070001A92248FFF728FD202034
:10119000ADF8040018208DF8070001A91D48FFF7DD
:1011A0001EFD4020ADF8040001A91A48FFF717FD05
:1011B0008020ADF8040001A91648FFF710FD1021AA
:1011C0001448FFF7A2FD0020ADF808004FF482702C
:1011D000ADF80A000020ADF80C000220ADF80E00BA
:1011E0000120ADF810004002ADF812000820ADF863
:1011F00014000020ADF816000720ADF8180002A971
:10120000054800F035F901210348FFF7ADFE07B0AE
:1012100000BD0000000801400030014070B50546E7
:101220000C46164600F006F910211548FFF76BFD35
:10123000022000F0A9F8C4F3074000F0A5F8C4F3B9
:10124000072000F0A1F8E0B200F09EF8B6F5807F2C
:1012500004DD4FF480760BA000F08EFB03E02878CD
:1012600000F092F86D1C3000A6F101018EB2F6D1AB
:1012700010210348FFF749FD00F0C2F870BD0000DF
:10128000000801403C3C2D464C4153482D455252EC
:101290004F522D3E3E205350495F464C4153485FCC
:1012A00050616765577269746520746F6F206C6157
:1012B000726765210A00000010B5002410210C4857
:1012C000FFF721FDAB2000F05FF8FF2000F05CF895
:1012D000FF2000F059F8FF2000F056F8FF2000F042
:1012E00053F8044610210248FFF70FFD204610BDB9
:1012F000000801402DE9F0410024002500260027C8
:1013000010210F48FFF7FFFC9F2000F03DF8FF2061
:1013100000F03AF80546FF2000F036F80646FF20B8
:1013200000F032F8074610210548FFF7EEFC2804CC
:1013300040EA062040EA07042046BDE8F0810000AC
:101340000008014010B5044600F074F800F058F8A9
:1013500010210C48FFF7D7FC202000F015F8C4F34B
:10136000074000F011F8C4F3072000F00DF8E0B2D8
:1013700000F00AF810210348FFF7C7FC00F040F81E
:1013800010BD00000008014010B504464FF4805025
:10139000194908600AE018490868411E164A116098
:1013A00020B9002000F082F8C0B210BD022113481D
:1013B00000F050F80028EED02146104800F056F812
:1013C0004FF480500C4908600AE00B490868411E40
:1013D000094A116020B9012000F068F8C0B2E4E7C2
:1013E0000121064800F036F80028EED0034800F04E
:1013F0003AF8C0B2D9E700004800002000300140B0
:1014000010B5002410210A48FFF77DFC0520FFF7E6
:10141000BBFF00BFFF20FFF7B7FF044604F0010049
:101420000028F7D110210248FFF76FFC10BD000023
:101430000008014010B510210548FFF764FC0620A4
:10144000FFF7A2FF10210248FFF75FFC10BD00006C
:10145000000801400246002013890B400BB1012017
:1014600000E00020704701468889704781817047FD
:1014700010B50022028802F441520B884C882343A5
:101480008C882343CC8823430C8923434C892343F2
:101490008C892343CC8923431A430280838B4FF2E8
:1014A000FF74234083830B8A038210BD10B504466A
:1014B000214602A000F060FA002010BD3C3C2D4601
:1014C0004C4153482D4552524F522D3E3E205350D1
:1014D0004920B5C8B4FDB3ACCAB1216572726F7250
:1014E000436F6465203D2025640A0000704710B5F5
:1014F00000F002F810BD00000CB500200190009033
:101500003348006840F480303149086000BF3048FB
:10151000006800F4003000900198401C0190009891
:1015200018B90198B0F5A06FF1D12948006800F40E
:10153000003010B10120009001E0002000900098E0
:10154000012843D12348006840F010002149086079
:101550000846006820F0030008600846006840F074
:10156000020008601A484068194948600846406807
:1015700048600846406840F480604860084640681B
:1015800020F47C1048600846406840F4E810486049
:101590000846006840F08070086000BF0C48006892
:1015A00000F000700028F9D00948406820F00300DE
:1015B000074948600846406840F00200486000BFA4
:1015C0000348406800F00C000828F9D10CBD000069
:1015D0000010024000200240042808D14FF0E02112
:1015E000096941F004014FF0E022116107E04FF07A
:1015F000E021096921F004014FF0E02211617047F8
:101600007047000010B504466FF00400FFF7E4FFD8
:10161000E11704EB5171C1F3C701054A117010467F
:1016200000784FF47A7148430249086010BD000009
:101630004C0000205000002010B51348006840F016
:1016400001001149086008464068104908400E49E9
:101650004860084600680E4908400B490860084683
:10166000006820F4802008600846406820F4FE00EE
:1016700048604FF41F008860FFF739FF4FF00060AB
:101680000449086010BD0000001002400000FFF88F
:10169000FFFFF6FE08ED00E010B540F225510F48BF
:1016A00000F0A8F858B10D48001D0088C1B20C48E0
:1016B00002680068401C0A4B18600A48815440F2D6
:1016C0002441064800F096F838B1044800880348E1
:1016D000001D008801200449087010BD0038014039
:1016E0003C000020580000203800002010B586B0D3
:1016F00004464FF4A060FFF7B1FB01218803FFF718
:10170000B9FB01210420FFF7B5FB4FF40070ADF8E1
:10171000140003208DF8160018208DF8170005A975
:101720002148FFF75CFA4FF48060ADF81400042004
:101730008DF8170005A91C48FFF751FA0194002005
:10174000ADF80800ADF80A00ADF80C00ADF81000D7
:101750000C20ADF80E0001A9144800F09BF82021E0
:10176000124800F025F8012240F225510F4800F000
:101770006BF8012240F224410C4800F065F8252066
:101780008DF8000000208DF801008DF80200012086
:101790008DF803006846FFF729FB0121034800F09C
:1017A00010F806B010BD00000008014000380140EC
:1017B00001F40072B2F5007F00D100BFCA4302807D
:1017C000704721B1828942F40052828104E082890B
:1017D0004DF6FF731A408281704702460020B1F532
:1017E000007F00D100BF13880B400BB1012000E047
:1017F0000020704770B50246002400230025002019
:1018000040F66A16B14200D100BFC1F3421501F0A3
:101810001F03012606FA03F3012D02D196893340F6
:1018200006E0022D02D1168A334001E0968A334049
:101830000C12012606FA04F41688344013B10CB1D8
:10184000012000E0002070BDF0B503460024002612
:101850000025002040F66A17B94200D100BF1846A3
:10186000C1F3421401F01F06012707FA06F5012C07
:1018700001D10C3004E0022C01D1103000E0143012
:101880001AB107682F43076002E00768AF4307609B
:10189000F0BD00002DE9F04786B005460E46002455
:1018A000A24600BFA1460027B08900B100BF2F4665
:1018B0002C8A4CF6FF700440F08804432C82AC89DB
:1018C0004EF6F3100440B08831890843718908430B
:1018D0000443AC81AC8A4FF6FF400440B089044316
:1018E000AC8201A8FFF7D6FA1F48874202D1DDF883
:1018F00010A001E0DDF80CA0A88900F4004040B180
:101900000AEBCA0000EB0A1031684900B0FBF1F89D
:1019100007E00AEBCA0000EB0A1031688900B0FB4F
:10192000F1F86420B8FBF0F004012009642101FB08
:101930001089A88900F4004040B1322000EBC900B2
:10194000B0FBF1F000F00700044308E0322000EBA8
:1019500009106421B0FBF1F000F00F0004432C816A
:1019600006B0BDE8F087000000380140C1F308026E
:101970008280704700BFFEE70FB4054B10B503A986
:10198000044A029800F0CAF810BC5DF814FB00008D
:10199000992200085400002002E008C8121F08C164
:1019A000002AFAD170477047002001E001C1121FE0
:1019B000002AFBD1704700002DE9FF5FDDE902201E
:1019C000010DDDF838B0024318D044F61050A1F2F2
:1019D000FF3141430D140F98012820D0A5EB0B00D7
:1019E000401C5FEA000A4FF00004474EDFF81C91EC
:1019F000A046504616D5CAF1000728E00F980124EA
:101A000043A2012808D0002100980F9BC0E90021C3
:101A1000C0E90243BDE8FF9F6FEA0B01F4E7CBF199
:101A20000000DEE7074612E0F80707D022463346FB
:101A300040464946FEF7B1FC804689462246334679
:101A400010461946FEF7A9FC04460E467F10002FEB
:101A5000EAD1DDE90201BAF1000F42464B4602DA53
:101A6000FEF79BFC01E0FEF70AFD04460E4600224D
:101A7000284BFEF78BFD03D84FF0FF30014607E0FF
:101A80000022254B20463146FEF7E0FBFEF766FDBF
:101A9000102409E0002C0ADB0A220023FEF7A5FB34
:101AA000019B30321A55641E50EA0102F2D1641CC7
:101AB000019AC4F1110314440F9A012A03D00122A0
:101AC00008430DD10AE0084304D000204FF0110B69
:101AD0000F9080E7A3EB0B056D1E0DE05B4504DD69
:101AE0004FF0000205F1010504E003DA4FF00002B7
:101AF000A5F10105002AECD000980F99C0E9023148
:101B0000C0E9004586E70000000024400000F03FE7
:101B1000300000000000F0430000E03F2DE9FF4FDF
:101B200095B09B468946064600250FE2252877D1C9
:101B300000242746F84A0121059400E0044316F8E2
:101B4000013F203B01FA03F01042F7D130782A28F8
:101B500011D06FF02F033078A0F13002092A16D887
:101B6000059A44F0020402EB820203EB42021044A5
:101B7000761C0590EFE759F8042B0592002A03DA4A
:101B8000504244F40054059044F00204761C30782E
:101B90002E2816D116F8010F44F004042A280DD07F
:101BA0006FF02F023078A0F13003092B09D807EB32
:101BB000870302EB4303C718761CF3E759F8047B4D
:101BC000761C30786C280FD006DC4C2817D068289B
:101BD0000DD06A2814D104E0742810D07A280FD1CF
:101BE0000DE044F400140AE044F4801401E044F4ED
:101BF00040147278824202D104F58014761C761C5F
:101C0000307866280BD013DC582877D009DC002800
:101C100075D04528F6D04628F4D047281AD19DE142
:101C200018E0632835D0642879D0652812D195E171
:101C3000702873D008DC6728F1D069286FD06E282F
:101C40000DD06F2806D1B5E073282CD0752875D03B
:101C5000782874D05A46179990476D1C75E1C4F3E3
:101C60000250022809D003280DD0D9F8001004280A
:101C70000DD00D6009F1040967E1D9F80010EA17E9
:101C8000C1E90052F6E7D9F800100D80F2E70D70B7
:101C9000F0E719F8041B8DF8001000208DF8010002
:101CA000EA46012003E059F804AB4FF0FF3061072A
:101CB0004FF0000102D40DE008F101018846B9425D
:101CC0000FDA8045F8DB1AF808100029F4D108E093
:101CD00008F1010188468142FADB1AF80810002950
:101CE000F6D105985B46A0EB080721463846179ABF
:101CF00000F094FA284400EB080507E04DE029E1E4
:101D00000DE01AF8010B5A4617999047B8F10108EF
:101D1000F7D25B4621463846179A13E142E00A2281
:101D20000092C4F302524FF0000A022A08D059F878
:101D300004CB032A4FEAEC710AD00DE029E02AE037
:101D400009F1070121F00702F2E802C1914609E01A
:101D50000FFA8CFC4FEAEC71042A03D14FFA8CFC89
:101D60004FEAEC71002907DA0A460021DCF1000C89
:101D700061EB02012D2202E0220504D52B228DF811
:101D80000420012203E0E20701D02022F7E7904679
:101D900059E00A2102E010220DE010214FF0000A64
:101DA00000910BE010224FF0000A44F004040827D1
:101DB000009203E008224FF0000A0092C4F302529E
:101DC000022A05D059F804CB0021032A08D009E0E3
:101DD00009F1070121F00702F2E802C1914605E08E
:101DE0001FFA8CFC042A01D10CF0FF0C4FF0000804
:101DF000220728D5702806D0009B83F0100353EAF1
:101E00000A0305D00EE040228DF80420012208E0EC
:101E10005CEA010206D030228DF804208DF805001E
:101E200002229046009B83F0080353EA0A030AD17A
:101E30005CEA010201D1620705D530228DF8042049
:101E40004FF001087F1E582804D034A003900EA83C
:101E500002900DE036A0F9E753466046009AFEF77F
:101E6000C4F984460398825C0298401E0290027076
:101E70005CEA0100F0D1029806A9081A00F1200AD4
:101E8000600702D524F4803400E00127574502DDC5
:101E9000A7EB0A0000E0002000EB0A010090059883
:101EA0004144401A0590E00306D45B462146179A48
:101EB000059800F0B3F90544002706E001A85A464A
:101EC000C05D179990476D1C7F1C4745F6DBE0030A
:101ED0000CD55B462146179A059800F09FF90544FA
:101EE00004E030205A46179990476D1C0099481E0F
:101EF00000900029F5DC08E0029802995A46007823
:101F0000491C0291179990476D1CBAF10001AAF182
:101F1000010AF1DC65E100000928010030313233AB
:101F20003435363738396162636465660000000015
:101F300030313233343536373839414243444546FF
:101F40000000000000F058F90544761C30780028A5
:101F50007FF4ECAD19B02846BDE8F08F620700D4DD
:101F6000062709F1070222F0070CFCE80223E146EC
:101F700003F000485FEA080C02D00FF2702C0DE06D
:101F80005FEA045C02D50FF2682C07E05FEAC47CCC
:101F900002D00FF2602C01E0AFF2700C4FF0FF386E
:101FA00023F00043CDF850C065280CD006DC45284E
:101FB00009D046281DD047283DD13DE0662818D0DD
:101FC00067287ED138E00021112F01DB112000E0CD
:101FD000781CCDE9000106A90EA8FFF7EDFCDDE9AC
:101FE0000F010E9A03910021009207F1010A04915A
:101FF0004DE04FF000400097CDE9011006A90EA872
:10200000FFF7DAFCDDE90F0203920E9B1199002223
:10201000DDF80CA00093049211B9791C00EB010AC1
:10202000B7EB0A0004D4C0F1FF3007F1010A0490B5
:10203000AAEB0700019044E0012F00DA01270021FC
:10204000112F01DD112000E03846CDE9000106A97D
:102050000EA8FFF7B1FCDDE90F010E9A03910021F4
:1020600004910092BA4621070CD40399514500DA35
:102070008A46BAF1010F05DD009AAAF10101515C0F
:10208000302908D0B84202DA10F1040F06DA012133
:10209000CDE9011015E0AAF10101E9E7002805DC0E
:1020A000049901440491AAEB000102E0411C51454E
:1020B00000DD8A460499401A401C01904FF0004010
:1020C0000290200704D40198504501DBCDF804802C
:1020D00000208DF84F0002980DF14F07B0F1004F2E
:1020E00025D02B200E9002984FF0020800280CDA21
:1020F000404202902D200E9007E00A210298FEF740
:102100005EF83031029007F8011DB8F10001A8F126
:102110000108F2DC02980028EFD1791E0E980870B1
:10212000307800F0200040F0450007F8020D12A8BA
:10213000C01B00F107081498007800B1012000EBE3
:102140000A01019801EBE07105984144401A401ED4
:102150000590E00306D45B462146179A059800F0E7
:102160005DF805441498007818B15A4617999047BD
:102170006D1CE00324D55B462146179A059800F0B4
:102180004DF805441CE00498002807DBDDE9030155
:10219000884203DD0098405C179901E017993020D0
:1021A0005A469047049805F10105401C0490019897
:1021B000401E019004D12E205A46179990476D1C5D
:1021C000BAF10001AAF1010ADDDC05E017F8010B04
:1021D0005A46179990476D1CB8F10001A8F1010803
:1021E000F4DC5B462146179A0598ABE62D0000000B
:1021F0002B000000200000002DE9F04104460025DE
:102200001E461746880404D405E039462020B0470E
:102210006D1C641EF9D52846BDE8F0812DE9F0411A
:10222000044600251E469046C80301D5302700E02D
:102230002027880404D505E041463846B0476D1C88
:10224000641EF9D52846BDE8F08100000146114A18
:1022500012684A434FF0E0235A6100229A611A46FD
:10226000126942F001021A6100BF4FF0E0221069CA
:1022700000F001021AB100F48032002AF5D04FF0CC
:10228000E022126922F001024FF0E0231A610022DD
:102290009A6170475000002070B504460D46A1B207
:1022A0000548FFF763FB00BF80210348FFF795FA5D
:1022B0000028F9D0204670BD003801402DE9FF5FAD
:1022C00006468A46212001904FF02009484609EB36
:1022D000D07149100091019901FB09F0C11700EB81
:1022E0005171C1F3C707DDE9002101FB02F0C117FD
:1022F00000EB5171C1F3C708002450E0305D00F0DD
:10230000800058B3305DA03800F0FF0B601C305CDB
:10231000A038C0B202900298401EABF101015E22CB
:1023200002FB01002049096800FB071003903A46B0
:102330001E480399FEF746FEA01C84B2002506E065
:102340001A48415D1AA0FFF717FB681C85B2BD4211
:10235000F6DB394617A0FFF70FFB20E016F804B0B4
:10236000ABF1200010490968154A114400FB081020
:10237000039042460D480399FEF724FE601C84B288
:10238000002506E00948415D09A0FFF7F5FA681C41
:1023900085B24545F6DB414606A0FFF7EDFA544508
:1023A000ACDBBDE8FF9F0000400000205802002089
:1023B000257820000D0A25640D0A0D0A0D0A00007B
:1023C000D07810000024002500264820FFF71AF9D5
:1023D0004FF4A060FEF742FD4FF4E130FFF786F9BD
:1023E000FEF7D8FCFEF796FCFEF7BAFEFEF764FF98
:1023F00032490860C820FFF729FFFEF77BFF30490C
:1024000008602E480268084601682EA0FFF7B4FA5B
:102410002B4800683949884203D139A0FFF7ACFA4C
:1024200002E03FA0FFF7A8FA47E0FEF78FFC012883
:1024300003D104B900E0002004461CBB00203F4942
:10244000086001203E49C1F8B8013E48007818B341
:1024500000203C4908703C48008882B231463B4825
:10246000FEF7D8FD38480068064439A0FFF784FA23
:102470003548002102683548FDF788FE00203249C2
:10248000086009E000202D49091D086001202C4941
:10249000C1F8B401FEF79CFC1420B5FBF0F100FB81
:1024A000115048B925480830006808B9012000E0FB
:1024B00000202249083108606D1CB6E700000020AA
:1024C000040000200D0A20466C61736849442069AD
:1024D0007320307825582C094D616E7566616374E0
:1024E0007572657220446576696365204944206988
:1024F0007320307825580D0A000000001740EF00C7
:102500000D0A20BCECB2E2B5BDB4AED0D0666C61B1
:1025100073682057323551363420210D0A000000EF
:102520000D0A20BBF1C8A1B2BBB5BD205732355151
:102530003634204944210A0D00000000B401244231
:1025400000002442380000203C00002058000020F9
:10255000D0B4C8EBB3C9B9A60D0A0000014608788B
:102560004A7842EA00208A7842EA0020CA7842EAA1
:102570000020704709093D3D3D3D3D3D3D3D3D3D10
:102580003D3D3D3D3D3D3D3D3D3D3D3D0D0A090946
:10259000666C617368202D7720202020D0B4CAFD9E
:1025A000BEDD0D0A200909666C617368202D72205A
:1025B00020202020B6C1CAFDBEDD0D0A2009096613
:1025C0006C617368202D692020202020B6C1C6F7D9
:1025D000BCFE49440D0A200909666C617368202D10
:1025E000662020202020B8F1CABDBBAF0D0A20090B
:1025F00009666C617368202D7320202020C9C8C72C
:10260000F8B2C1B3FD0D0A200909666C6173682038
:102610002D6220202020BFE9B2C1B3FD0D0A2009A0
:10262000093D3D3D3D3D3D3D3D3D3D3D3D3D3D3D0E
:102630003D3D3D3D3D3D3D0D0A000000666C617332
:1026400068C3FCC1EEB8F1CABDD3D0CECACCE2A3F8
:10265000ACCABEB7B63A20666C617368202D77208D
:1026600030783030200D0A2020B2CECAFD3A202D1D
:102670007720CFF2666C617368D0B4CAFDBEDD0D01
:102680000A202D7220B6C1C8A1666C617368B5C4FA
:10269000CAFDBEDD0D0A0000B826000800000020BB
:1026A0005800000098190008102700085800002062
:1026B00088060000A81900080000000000000000C3
:1026C000B8D0D0BBC4FAD1A1D3C3D2B0BBF073741D
:1026D0006D3332BFAAB7A2B0E50D0A0000000000BA
:1026E00001020304010203040607080902040608A4
:1026F0000000000000000000E06763000000000030
:1027000000A0000000000000000000000000000029
:0400000508000145A9
:00000001FF
